:020000040800F2
:10000000A8170020F1070008F9070008FB070008FF
:1000100000000000000000000000000000000000E0
:10002000000000000000000000000000FD070008C4
:100030000000000000000000250500081D05000864
:100040000308000800000000030800080308000877
:100050000308000803080008030800080308000854
:100060000000000003080008030800080308000857
:100070000308000803080008030800080000000047
:10008000030800080000000000000000030800084A
:10009000000000003F1200080308000803080008E1
:1000A000030800080308000803080008DB12000822
:1000B000030800080000000000000000000000002D
:1000C00000F002F800F03EF812A030C808382418FA
:1000D0002D18AC4201D100F035F80FCCA246AB464A
:1000E0000CA730CF2D1B083F3F197C427F1E544484
:1000F0002D090426F441641EAC4201D300F022F81D
:100100000126334200D0FB1A3343984754465D46DC
:10011000DFE70000181300003813000070470000EC
:100120000023002400250026103A01D378C1FBD813
:10013000520700D330C100D50B6070471FB51FBDFB
:1001400010B510BD00F029FC1146FFF7F7FF01F0D4
:1001500021F900F041FC03B4FFF7F2FF03BC00F00B
:1001600047FC00000000000000000000000000004C
:10017000FEE7000000B500200FD040480168404A6B
:10018000114301603F484049016040480168404ACE
:10019000D24311403A4A114301603E4800210160B8
:1001A00041603D4801603D4801603D4801603D4877
:1001B00001603D4801603D4801603D4801603D48A7
:1001C00001603D4801603D4801683D4A11433D4A98
:1001D000D2431140016001683B480842FBD0002037
:1001E00035D03A483A4908603A4801680722D24374
:1001F00011400222114301600168072211400222CE
:100200009142F9D12D480168334AD243114001602F
:100210000168324A1140FBD1314832490160274818
:1002200001682D4A1143016001682C4A1140FBD03E
:100230002D4801680722D243114002221143016078
:1002400001683822114010229142F9D10CE0274870
:100250001F490860244801680722D2431140016009
:10026000016838221142FBD121480168214A11431B
:1002700001602148FF2100F041F800BD3410024028
:1002800001000000180000500000010000000050B4
:1002900003000000040000200C00002010000020DB
:1002A00014000020180000201C0000202000002066
:1002B00024000020300B0020C00B00200010024062
:1002C000000100000038000000040000FFF90000F9
:1002D0000000002000200240000000010000000299
:1002E0000C10024002080030081002407F3E00005F
:1002F00020ED00E00000FF0071010008184A194BD2
:100300001B685B1C5A43184BD218203A203A002332
:10031000136053609360D360136153619361D36141
:10032000136253629362D36213635363034693630E
:100330000E4BD3630B48006880000D4B1B181A60EE
:100340000C4A121811600C49002209180A600B4966
:100350000B4A09180A6003480168491C016070478C
:1003600000010000240000202800002000000001FF
:10037000340B0020600B0020940B0020C40B0020E5
:1003800000000000564800685649086056480021A1
:1003900001605648072101605548012130318174C0
:1003A00001213031017501213031817551480A2117
:1003B0000B460021202240004941994201D3C91A2D
:1003C000401C521EF7D1FF23184019403030303105
:1003D000494A9074D17449480068401E0A210B466E
:1003E0000021202240004941994201D3C91A401CF2
:1003F000521EF7D1FF231840194030303031404AA7
:100400009074D1743F4840490B460021202240009F
:100410004941994201D3C91A401C521EF7D1FF230A
:1004200018403030394A9074080064210B4600218E
:10043000202240004941994201D3C91A401C521E52
:10044000F7D1FF2318403030304AD07408000A2119
:100450000B460021202240004941994201D3C91A8C
:10046000401C521EF7D1FF2318403030274A107528
:10047000FF23194030315175002010D02448452108
:1004800081746E21C17461210175622141756C21F5
:1004900081756521C1756421017620214176002096
:1004A00010D01C48452181746E21C17461210175F1
:1004B000622141756C2181756521C17564210176C8
:1004C000202141760F481449401880F30988EFF342
:1004D00014810222114381F31488BFF36F8F47E622
:1004E0000000002014E000E018E000E010E000E070
:1004F000E00C00200A000000F90C0020240000207D
:100500000F0D002000010000E8030000400D002056
:100510005A0D0020760D0020280000205D485E491D
:100520000160704772B6002002D05C485C490160EF
:10053000EFF309802038046045608660C76041465B
:10054000016149464161514681615946C16180F36B
:10055000098854480068800053490844EFF3098132
:100560000160FF20514908600020514908600020C7
:100570004C4908604B48006880004E4909180A68D9
:10058000002A09D04C4B1B681B4203D1521E0A6043
:10059000002A01D0424900E04849494A1218116036
:1005A000474909180968454A91420BD13F490A68F1
:1005B000444B1B181B68934204D20B6039480068F7
:1005C0003B49086037480168491C3F4A126891421C
:1005D00001D20160CEE733483549096801603648E9
:1005E0000168094207D139480168491C016002D1FC
:1005F0004168491C41603048016809420BD13448C8
:100600000168491C334A914204D32C49324A136889
:100610005B1C136001602848016809421AD1214817
:1006200001682E4A1068094201D0401C10602C4914
:100630000A68521C274B9A420BD32A4B18602A4B4C
:100640001B6840085B08C018274B1860002223482D
:1006500002600A60184800210160124800688000AA
:10066000114908440068046845688668C7680169DC
:1006700088464169894681698A46C1698B4620302E
:1006800080F30988002002D004481849016062B64E
:100690007047000004ED00E000000010180000505A
:1006A00001000000300B0020340B00208C0B0020D8
:1006B000900B0020940B0020C00B002000000000D5
:1006C000C40B0020600B0020240000200400002048
:1006D00010000020E80300000C000020180000209B
:1006E000140000201C000020200000200000010059
:1006F00072B6184909688900174A52181060174ADB
:10070000521817491160174801210160164817490E
:100710000160BFF34F8FBFF36F8F62B6704714480D
:100720000068704772B612484168006862B6704748
:1007300010480068704700B503460F48054909682E
:10074000C9004218FFF7EEFFC0180023594110609E
:10075000516000BD300B0020940B0020C40B002022
:1007600001000000C00B002004ED00E000000010BC
:10077000040000200C000020F00B002000B51748FA
:1007800017490968C900421853681268FFF7CAFF81
:10079000994204D801D3904201D8002000E0012002
:1007A00000BD1048006870470F480068704701207E
:1007B000704701207047012070470C49085C704762
:1007C00030B5040000252800FFF7F7FF004203D0F2
:1007D000A0476D1CFFF7F7FF30BD0000F00B0020B5
:1007E000300B00201C000020200000204C0C0020BA
:1007F0000748804707480047FEE7FEE7FEE7FEE7B9
:10080000FEE7FEE704480549054A064B704700002D
:100810003D120008C1000008A8110020A817002000
:10082000A8130020A8130020002203098B422CD318
:10083000030A8B4211D300239C464EE003460B4330
:100840003CD4002243088B4231D303098B421CD392
:10085000030A8B4201D394463FE0C3098B4201D384
:10086000CB01C01A524183098B4201D38B01C01ABC
:10087000524143098B4201D34B01C01A5241030933
:100880008B4201D30B01C01A5241C3088B4201D3E2
:10089000CB00C01A524183088B4201D38B00C01A8F
:1008A000524143088B4201D34B00C01A5241411AB6
:1008B00000D201465241104670475DE0CA0F00D099
:1008C0004942031000D3404253409C460022030992
:1008D0008B422DD3030A8B4212D38901FC2212BA18
:1008E000030A8B420CD3890192118B4208D38901F0
:1008F00092118B4204D389013AD0921100E0890908
:10090000C3098B4201D3CB01C01A524183098B42E8
:1009100001D38B01C01A524143098B4201D34B01D1
:10092000C01A524103098B4201D30B01C01A524134
:10093000C3088B4201D3CB00C01A524183088B42BB
:1009400001D38B00C01A5241D9D243088B4201D344
:100950004B00C01A5241411A00D201465241104682
:1009600063465B1001D34042002B00D549427047DB
:1009700063465B1000D3404201B50549002802DC04
:10098000491C084000E00846C046C04602BD00BF02
:10099000FFFFFF7F704770477047754600F024F8EF
:1009A000AE46050069465346C008C000854618B0EB
:1009B00020B5FFF727FF60BCB64600260027C0C55C
:1009C000C0C5C0C5C0C5C0C5C0C5C0C5C0C5403D07
:1009D000490849008D46704710B50446C046C046D8
:1009E0002046FFF7B8FB10BD00487047E810002014
:1009F00001491820ABBEFEE726000200704770B523
:100A00008C180578401C6B075B0F01D10378401CE4
:100A10002A1106D10278401C03E00678401C0E70B3
:100A2000491C5B1EF9D12B0705D40023521E0DD49F
:100A30000B70491CFAE70378401CCB1A921C03E0A8
:100A40001D780D70491C5B1C521EF9D5A142D8D3EC
:100A5000002070BD81B0694600200870FFE768463D
:100A600000783F280CD8FFE768460178F64841181F
:100A700000200873FFE70098401C69460870EEE705
:100A8000F14950220020885201B0704781B00146E0
:100A9000684601800188EC484018007B01B070472F
:100AA000E9485021405A704780B586B0059004A8A7
:100AB000017003A90020088002A90870FFE702A8BE
:100AC000007804A90978884211DAFFE703A80190A9
:100AD0000088059902AA1278895C00F00DF8019946
:100AE0000880FFE70298401C02A90870E7E703A806
:100AF000008806B080BD000084B00A4603A90880C3
:100B000002A80270007801AA1080019800021080EB
:100B10000398019A50400880694600200870FFE75A
:100B20006846007807281FDCFFE703A80088000458
:100B300000280ED5FFE7039801A90880019840001E
:100B4000088001980A4A50400880019803A908804B
:100B500004E00398400003A90880FFE7FFE700983E
:100B6000401C69460870DBE703A8008804B07047A2
:100B7000211000007047000080B582B0019000F0A5
:100B80009FFA2E480068C007002806D0FFE72B49CF
:100B90000868012290430860FFE7E848006801996F
:100BA000FFF742FE80B20249086002B080BDC04635
:100BB0000C440040034908680122520410430860B5
:100BC0007047C0463C1002401148006801210840AF
:100BD000012806D0FFE70E4908680122104308608B
:100BE000FFE70C4908680F2212029043086008686A
:100BF0000122120210430860052001070868302214
:100C00009043086008682022104308607047C0467F
:100C100034100240200000500848016808221143A7
:100C20000160006801210840012806D0FFE7034960
:100C30000868012210430860FFE770470044004045
:100C400080B5FFF72DFF80BD80B5FFF793FF00F063
:100C5000B3F80146C148C1720078002815D1FFE7FA
:100C6000BE49CA7A50200B5ACB181A730A5A521C22
:100C70000A52085A4E22895A884205DBFFE7B749D3
:100C8000502200208852FFE70EE0B4480021C172D4
:100C90004078002804D1FFE7B04908784870FFE7A2
:100CA000AE4900200870FFE700F05AF9AB48522126
:100CB000405C002807D1FFE700F0DAF8A74952228C
:100CC00001208854FFE780BD80B582B0019000F01C
:100CD0007FF800F065F800F039F9FFF775FFFFF7CE
:100CE00069FF0198FFF748FFFFF796FF00F0FEF855
:100CF00000F036F900F0BCF8FFF7ACFE02B080BDA2
:100D000080B586B005A90020087004A9088003A951
:100D10000880924958228854FFF792FF03283ADB53
:100D2000FFE7FFF78DFF014605A801700599891EB1
:100D300001700178894802900C30FFF7B5FE04A9D4
:100D40000880FFF77DFF801E80B2FFF79FFE03A99A
:100D500001910880039800020880FFF771FF401E90
:100D600080B2FFF793FE019A034602980399194354
:100D7000118004995422815201465431039B4B80C7
:100D8000805A4988884205D1FFE7744958220120DA
:100D90008854FFE7FFE706B080BDC04670470000FB
:100DA0006E4954220020885254314880087148719D
:100DB000012088717047C04681B0684600210170EB
:100DC000024909680170007801B07047244400406E
:100DD00082B0624900200870487001A90870FFE7DE
:100DE00001A8007807280CDCFFE701A801785B4820
:100DF000411800208870FFE70198401C01A9087085
:100E0000EEE7564900208872C8724E234022CA522B
:100E10005022885269460870FFE7684600784F49BB
:100E20004E22895A88420CDAFFE7684601784B481F
:100E3000411800200873FFE70098401C69460870BD
:100E4000EBE702B07047C04648110020044908682B
:100E500002229043086008680122904308607047AE
:100E6000104401400549086801229043086070471A
:100E7000024908680122104308607047004401409D
:100E800080B5FFF7E3FF35485221405C012807D1C8
:100E9000FFE7FFF7E7FF3149522200208854FFE7C0
:100EA000FFF7FEFD002820D0FFE72C485A21405CC8
:100EB00000280FD1FFE72948102101704078002851
:100EC00004D1FFE7254908784870FFE7234900204F
:100ED0000870FFE7FFF714FF2049543101204871E3
:100EE00000208871FFF75AFFFFE780BD80B582B010
:100EF00000F0E6F8104908680122009252041043FD
:100F00000860CB4800687D21C900FFF78DFC009A7E
:100F1000401E0B4908600B49142008600A49086804
:100F2000104308601520019000F0DCF901980221BF
:100F300000F0EEF902B080BD40100240E410002045
:100F4000284401402C4401400C44014003495222F2
:100F500000208854523148707047C0464811002024
:100F600001490020086070472444014081B00146D7
:100F700068460170007809490860FFE70848006882
:100F800040210840402801D0FFE7F7E705490868FD
:100F900040221043086001B07047C046284400401A
:100FA0001C4400402044004080B50D20FFF7DEFFC8
:100FB0000A20FFF7DBFF80BD80B584B0039002A953
:100FC00000200870FFE7039802A90978405C002818
:100FD0000CD0FFE7039802A901910978405CFFF764
:100FE000C5FF01990298401C0870ECE704B080BD71
:100FF00080B582B001900198FFF7DEFFFFF7D4FFC4
:1010000002B080BD2D4908680122520410430860D7
:101010007047C04625490868012210430860052032
:10102000010708680C2290430860086804221043F6
:101030000860704721490868022210430860704721
:101040001E49086801229204104308607047C04698
:101050001649086801221043086005200107086846
:1010600030229043086008681022104308607047DF
:101070001249086804221043086070470F49086845
:101080000122D204104308607047C046074908682F
:10109000012210430860052001070868C022904320
:1010A000086008684022104308607047341002400E
:1010B0000249086808221043086070471800005071
:1010C00080B588B056480068382108400190202833
:1010D00000D985E00198810001A040588746C046AC
:1010E000DF110008E1110008E1110008E11100081A
:1010F000E1110008E1110008E1110008E111000808
:1011000065110008E1110008E1110008E111000873
:10111000E1110008E1110008E1110008E1110008E7
:1011200081110008E1110008E1110008E111000837
:10113000E1110008E1110008E1110008E1110008C7
:101140006D110008E1110008E1110008E11100082B
:10115000E1110008E1110008E1110008E1110008A7
:101160007711000832493148086049E030497D2054
:101170000002086044E02E490120C00308603FE0FF
:10118000284801680322114004910068702108403A
:101190000009401C03900498032806D1FFE7039937
:1011A0002248FFF741FB069005E003991E48FFF730
:1011B0003BFB0690FFE7069A1A4801687F231B0253
:1011C0001940090A514306910068400F401C0590E0
:1011D00006980599FFF728FB1549086010E0FFE71E
:1011E000144800680721C9020840C10A012088404C
:1011F000029002990C48FFF717FB0D490860FFE7C2
:10120000074800680F210902084081090A48405830
:101210000790079A06490868D040086008B080BD6A
:10122000081002400C1002400024F40000127A0062
:10123000E410002000100240DC130008704780B565
:10124000FFF71EFE80BD00004B204002FFF73CFD73
:101250000548FFF7CDFE0548FFF7B2FAFFE704485F
:10126000FFF746FAFBE7C0461C1400086D0F0008A4
:1012700060EA000082B0FFF7CDFEFFE7FFF7DAFE7D
:101280007D2080000190FFF733FAFFF7BBFE019845
:10129000FFF72EFAF2E782B0FFF7DAFEFFE7FFF77B
:1012A000E7FE7D20C0000190FFF722FAFFF7C8FE9D
:1012B0000198FFF71DFAF2E782B0FFF7E7FEFFE7BC
:1012C000FFF7F6FE7D2000010190FFF711FAFFF70E
:1012D000D5FE0198FFF70CFAF2E780B5FFF7B4FCF2
:1012E00080BD000081B00146684601700021405673
:1012F000002809D4FFE7684601781F20014001203B
:10130000884002490860FFE701B0704700E100E053
:1013100070B582B0024601A80270009100214056CB
:10132000002816D4FFE7002401A908570322D3435D
:101330001840174A805809578C07E50EFF24AC4027
:10134000A043009CA401E4B2AC4020431940885063
:101350001AE001A908780F24204008380322D3435B
:1013600018400A4A8058002549578D07EE0EFF2580
:10137000B540A843009DAD01EDB2B54028432140E2
:10138000083919408850FFE702B070BD1CED00E03D
:1013900000E400E080B582B0002000900190FEF7EC
:1013A000E9FE00990948FEF7A9FF09480121FEF767
:1013B000A5FF08480221FEF7A1FF07480321FEF719
:1013C0009DFFFEF7DFFFFFE7FEE7C046491200087A
:1013D0007512000897120008B912000800000000FA
:1013E00000000000000000000000000000000000FD
:1013F00000000000000000000000000001000000EC
:1014000002000000030000000400000006000000CD
:101410000700000008000000090000004465627534
:101420006753746172746564000000005014000812
:1014300000000020E8100000FE09000880150008E8
:10144000E8100020C0060000200100080000000095
:1014500001FF01FF01FF01FF01FF01FF01FF01FF8C
:1014600001FF01FF01FF01FF0158381D0D0A0D0AA0
:101470004F5320456E7669726F6E6D656E742020D5
:101480003A20462D52544F531A280A506C61746604
:101490006F726D200118193A2041524D20436F722E
:1014A000746578204D302B0D0A536F757263651388
:1014B0005B64652248256769746875622E636F6D89
:1014C0002F66617269643133323039370D0A4175E4
:1014D00074686F7220456D61696C2A391F280A6D26
:1014E0006469736C616D406718293628110D0A4BC9
:1014F00065726E656C2056657273696F6E2A1B305B
:101500002E02580E0D0A4D61782054687265616490
:10151000736D1A301669121A43075C7465641618E5
:1015200008537461636B204D98396E19166808551D
:101530006E69666965641B4C53697AB33931180E5C
:10154000303020420D0A4750494F2054691E1E4436
:10155000656275671A2F44697361626C36380E4391
:10156000505520504C4C2036344D487A36891C2931
:101570000201FF01FF01FF01521324F400000000EB
:04000005080000C12E
:00000001FF
